:200000000000000000000000000000000000000000000000000000000000000000000000E0
:200020000000000000000000000000000000000000000000000000000000000000000000C0
:200040000000000000000000000000000000000000000000000000000000000000000000A0
:20006000000000000000000000000000000000000000000000000000000000000000000080
:20008000000000000000000000000000000000000000000000000000000000000000000060
:2000A000000000000000000000000000000000000000000000000000000000000000000040
:2000C000000000000000000000000000000000000000000000000000000000000000000020
:2000E000000000000000000000000000000000000000000000000000000000000000000000
:200100000000000000000000000000000000000000000000000000000000000000000000DF
:200120000000000000000000000000000000000000000000000000000000000000000000BF
:2001400000000000000000000000000000000000000000000000000000000000000000009F
:20016000000000000006040200000000000000000000000000000606000000000000000067
:200180000E11191513110E000406040404040E000E11100804021F001F08040810110E00FA
:2001A000080C0A091F0808001F010F1010110E000C02010F11110E001F10080402020200EC
:2001C0000E11110E11110E000E11111E100806000000000000000000000000000000000045
:2001E0000000000000000000000000000000000000000000000000000000000000000000FF
:20020000000000000000000000041A11111F1111000F11110F11110F000E11010101110EAB
:200220000007091111110907001F01010F01011F001F01010F010101000E11011D11111E6A
:20024000001111111F111111000E04040404040E001C08080808090600110905030509115D
:20026000000101010101011F00111B15111111110011111315191111000E11111111110EDE
:20028000000F11110F010101000E111111150916000F11110F050911000E11010E10110EEA
:2002A000001F0404040404040011111111110E000011111111110A04001111111515150AC5
:2002C0000011110A040A1111001111110A040404061F10080402011F000000000000000016
:2002E0000000000000000000000000000000000000000000000000000000000000000000FE
:2003000000000000000000000000000E101E111E0001010D1311110F0000000E0101110EF0
:20032000001010161911111E0000000E111F010E000C1202070202020000001E111E100E49
:200340000001010D13111111000400040604040E0008000C080809060001010905030509D0
:20036000000604040404040E0000000B151515150000000D1B1111110000000E1111110E4C
:200380000000000F110F010100000016191E10100000000D130101010000000E010E100F60
:2003A000000202070202120C00000011111119160000001111110A04000000111115150A17
:1803C000000000110A040A1100000011111E100E0000001F0804021F41
:00000001FF
